2847535912115024824602900000000000050000020020313000345630082018502TEST                     591211502284753000000130082018_F.tif591211502284753000000130082018_B.jpg591211502284753000000130082018_G.jpg
2847535912115024824602900000000000050000020020313000345630082018502TEST                     591211502284753000000230082018_F.tif591211502284753000000230082018_B.jpg591211502284753000000230082018_G.jpg
2847535912115024824602900000000000050000020020313000345630082018502TEST                     591211502284753000000330082018_F.tif591211502284753000000330082018_B.jpg591211502284753000000330082018_G.jpg
